{
  "_format": "hh-sol-artifact-1",
  "contractName": "LeaderSelection",
  "sourceName": "contracts/production/LeaderSelection.sol",
  "abi": [
    {
      "inputs": [
        {
          "internalType": "address",
          "name": "initMultisig",
          "type": "address"
        },
        {
          "internalType": "contract IFuel_v1",
          "name": "initFuel",
          "type": "address"
        },
        {
          "internalType": "contract ITokenRelease",
          "name": "initProducer",
          "type": "address"
        },
        {
          "internalType": "contract IERC20",
          "name": "initToken",
          "type": "address"
        },
        {
          "internalType": "contract IMultisig",
          "name": "initControlMultisig",
          "type": "address"
        }
      ],
      "stateMutability": "nonpayable",
      "type": "constructor"
    },
    {
      "inputs": [],
      "name": "bondValue",
      "outputs": [
        {
          "internalType": "uint256",
          "name": "",
          "type": "uint256"
        }
      ],
      "stateMutability": "view",
      "type": "function"
    },
    {
      "inputs": [
        {
          "internalType": "bytes",
          "name": "blockHeader",
          "type": "bytes"
        }
      ],
      "name": "bondWithdraw",
      "outputs": [],
      "stateMutability": "nonpayable",
      "type": "function"
    },
    {
      "inputs": [
        {
          "internalType": "uint32",
          "name": "minimum",
          "type": "uint32"
        },
        {
          "internalType": "bytes32",
          "name": "minimumHash",
          "type": "bytes32"
        },
        {
          "internalType": "uint32",
          "name": "height",
          "type": "uint32"
        },
        {
          "internalType": "bytes32[]",
          "name": "roots",
          "type": "bytes32[]"
        }
      ],
      "name": "commitBlock",
      "outputs": [],
      "stateMutability": "payable",
      "type": "function"
    },
    {
      "inputs": [
        {
          "internalType": "bytes32",
          "name": "transactionId",
          "type": "bytes32"
        }
      ],
      "name": "commitWitness",
      "outputs": [],
      "stateMutability": "nonpayable",
      "type": "function"
    },
    {
      "inputs": [
        {
          "internalType": "address",
          "name": "",
          "type": "address"
        },
        {
          "internalType": "uint256",
          "name": "",
          "type": "uint256"
        },
        {
          "internalType": "uint256",
          "name": "",
          "type": "uint256"
        }
      ],
      "name": "commitment",
      "outputs": [
        {
          "internalType": "bool",
          "name": "",
          "type": "bool"
        }
      ],
      "stateMutability": "view",
      "type": "function"
    },
    {
      "inputs": [],
      "name": "controlMultisig",
      "outputs": [
        {
          "internalType": "contract IMultisig",
          "name": "",
          "type": "address"
        }
      ],
      "stateMutability": "view",
      "type": "function"
    },
    {
      "inputs": [],
      "name": "freeId",
      "outputs": [
        {
          "internalType": "uint32",
          "name": "",
          "type": "uint32"
        }
      ],
      "stateMutability": "view",
      "type": "function"
    },
    {
      "inputs": [],
      "name": "fuel",
      "outputs": [
        {
          "internalType": "contract IFuel_v1",
          "name": "",
          "type": "address"
        }
      ],
      "stateMutability": "view",
      "type": "function"
    },
    {
      "inputs": [
        {
          "internalType": "address",
          "name": "",
          "type": "address"
        }
      ],
      "name": "ids",
      "outputs": [
        {
          "internalType": "uint32",
          "name": "",
          "type": "uint32"
        }
      ],
      "stateMutability": "view",
      "type": "function"
    },
    {
      "inputs": [],
      "name": "lastSelected",
      "outputs": [
        {
          "internalType": "uint256",
          "name": "",
          "type": "uint256"
        }
      ],
      "stateMutability": "view",
      "type": "function"
    },
    {
      "inputs": [],
      "name": "leaderId",
      "outputs": [
        {
          "internalType": "uint32",
          "name": "",
          "type": "uint32"
        }
      ],
      "stateMutability": "view",
      "type": "function"
    },
    {
      "inputs": [],
      "name": "minimumTokens",
      "outputs": [
        {
          "internalType": "uint256",
          "name": "",
          "type": "uint256"
        }
      ],
      "stateMutability": "view",
      "type": "function"
    },
    {
      "inputs": [],
      "name": "multisig",
      "outputs": [
        {
          "internalType": "address",
          "name": "",
          "type": "address"
        }
      ],
      "stateMutability": "view",
      "type": "function"
    },
    {
      "inputs": [],
      "name": "nullifyMultisig",
      "outputs": [],
      "stateMutability": "nonpayable",
      "type": "function"
    },
    {
      "inputs": [],
      "name": "numReleases",
      "outputs": [
        {
          "internalType": "uint32",
          "name": "",
          "type": "uint32"
        }
      ],
      "stateMutability": "view",
      "type": "function"
    },
    {
      "inputs": [],
      "name": "proxy",
      "outputs": [
        {
          "internalType": "address",
          "name": "",
          "type": "address"
        }
      ],
      "stateMutability": "view",
      "type": "function"
    },
    {
      "inputs": [
        {
          "internalType": "contract ITokenRelease",
          "name": "release",
          "type": "address"
        }
      ],
      "name": "register",
      "outputs": [],
      "stateMutability": "nonpayable",
      "type": "function"
    },
    {
      "inputs": [],
      "name": "releaseBytecodeHash",
      "outputs": [
        {
          "internalType": "bytes32",
          "name": "",
          "type": "bytes32"
        }
      ],
      "stateMutability": "view",
      "type": "function"
    },
    {
      "inputs": [],
      "name": "releaseBytecodeSize",
      "outputs": [
        {
          "internalType": "uint256",
          "name": "",
          "type": "uint256"
        }
      ],
      "stateMutability": "view",
      "type": "function"
    },
    {
      "inputs": [],
      "name": "releaseConstructorSize",
      "outputs": [
        {
          "internalType": "uint256",
          "name": "",
          "type": "uint256"
        }
      ],
      "stateMutability": "view",
      "type": "function"
    },
    {
      "inputs": [
        {
          "internalType": "uint32",
          "name": "",
          "type": "uint32"
        }
      ],
      "name": "releases",
      "outputs": [
        {
          "internalType": "address",
          "name": "",
          "type": "address"
        }
      ],
      "stateMutability": "view",
      "type": "function"
    },
    {
      "inputs": [],
      "name": "resetWindow",
      "outputs": [
        {
          "internalType": "uint256",
          "name": "",
          "type": "uint256"
        }
      ],
      "stateMutability": "view",
      "type": "function"
    },
    {
      "inputs": [],
      "name": "token",
      "outputs": [
        {
          "internalType": "contract IERC20",
          "name": "",
          "type": "address"
        }
      ],
      "stateMutability": "view",
      "type": "function"
    }
  ],
  "bytecode": "0x60e06040523480156200001157600080fd5b50604051620039f5380380620039f58339818101604052810190620000379190620009f9565b846000806101000a81548173ffffffffffffffffffffffffffffffffffffffff021916908373ffffffffffffffffffffffffffffffffffffffff1602179055508373ffffffffffffffffffffffffffffffffffffffff1663570ca7356040518163ffffffff1660e01b8152600401602060405180830381600087803b158015620000c057600080fd5b505af1158015620000d5573d6000803e3d6000fd5b505050506040513d601f19601f82011682018060405250810190620000fb9190620009cd565b73ffffffffffffffffffffffffffffffffffffffff1660c08173ffffffffffffffffffffffffffffffffffffffff1660601b815250508373ffffffffffffffffffffffffffffffffffffffff1660808173ffffffffffffffffffffffffffffffffffffffff1660601b8152505081600160006101000a81548173ffffffffffffffffffffffffffffffffffffffff021916908373ffffffffffffffffffffffffffffffffffffffff1602179055508073ffffffffffffffffffffffffffffffffffffffff1660a08173ffffffffffffffffffffffffffffffffffffffff1660601b81525050620001f183620001fc60201b60201c565b505050505062000ecc565b6200020d816200039460201b60201c565b600160189054906101000a900463ffffffff16600560008373ffffffffffffffffffffffffffffffffffffffff1673ffffffffffffffffffffffffffffffffffffffff16815260200190815260200160002060006101000a81548163ffffffff021916908363ffffffff1602179055508060046000600160189054906101000a900463ffffffff1663ffffffff1663ffffffff16815260200190815260200160002060006101000a81548173ffffffffffffffffffffffffffffffffffffffff021916908373ffffffffffffffffffffffffffffffffffffffff160217905550600360009054906101000a900463ffffffff1663ffffffff16600160189054906101000a900463ffffffff1663ffffffff1614156200035e576001600360008282829054906101000a900463ffffffff160192506101000a81548163ffffffff021916908363ffffffff1602179055505b600360009054906101000a900463ffffffff16600160186101000a81548163ffffffff021916908363ffffffff16021790555050565b600073ffffffffffffffffffffffffffffffffffffffff168173ffffffffffffffffffffffffffffffffffffffff16141562000407576040517f08c379a0000000000000000000000000000000000000000000000000000000008152600401620003fe9062000d09565b60405180910390fd5b6060620004218260a06200090a60201b6200154c1760201c565b90507f2a7cfb605ecbaaebee7c515143b57775b198b4b26f09976132e4bed2fc6b195760001b81805190602001201462000492576040517f08c379a0000000000000000000000000000000000000000000000000000000008152600401620004899062000d6f565b60405180910390fd5b60a06116a201620004ae836200093860201b6200157a1760201c565b14620004f1576040517f08c379a0000000000000000000000000000000000000000000000000000000008152600401620004e89062000d2b565b60405180910390fd5b600073ffffffffffffffffffffffffffffffffffffffff168273ffffffffffffffffffffffffffffffffffffffff16638da5cb5b6040518163ffffffff1660e01b8152600401602060405180830381600087803b1580156200055257600080fd5b505af115801562000567573d6000803e3d6000fd5b505050506040513d601f19601f820116820180604052508101906200058d9190620009cd565b73ffffffffffffffffffffffffffffffffffffffff1614806200067e575060008054906101000a900473ffffffffffffffffffffffffffffffffffffffff1673ffffffffffffffffffffffffffffffffffffffff168273ffffffffffffffffffffffffffffffffffffffff16638da5cb5b6040518163ffffffff1660e01b8152600401602060405180830381600087803b1580156200062b57600080fd5b505af115801562000640573d6000803e3d6000fd5b505050506040513d601f19601f82011682018060405250810190620006669190620009cd565b73ffffffffffffffffffffffffffffffffffffffff16145b620006c0576040517f08c379a0000000000000000000000000000000000000000000000000000000008152600401620006b79062000ce7565b60405180910390fd5b6906c6b935b8bbd4000000600160009054906101000a900473ffffffffffffffffffffffffffffffffffffffff1673ffffffffffffffffffffffffffffffffffffffff166370a08231846040518263ffffffff1660e01b815260040162000728919062000c86565b60206040518083038186803b1580156200074157600080fd5b505afa15801562000756573d6000803e3d6000fd5b505050506040513d601f19601f820116820180604052508101906200077c919062000a7b565b1015620007c0576040517f08c379a0000000000000000000000000000000000000000000000000000000008152600401620007b79062000ca3565b60405180910390fd5b6000600560008473ffffffffffffffffffffffffffffffffffffffff1673ffffffffffffffffffffffffffffffffffffffff16815260200190815260200160002060009054906101000a900463ffffffff1663ffffffff16146200085b576040517f08c379a0000000000000000000000000000000000000000000000000000000008152600401620008529062000d4d565b60405180910390fd5b8173ffffffffffffffffffffffffffffffffffffffff16600460008063ffffffff16815260200190815260200160002060009054906101000a900473ffffffffffffffffffffffffffffffffffffffff1673ffffffffffffffffffffffffffffffffffffffff16141562000906576040517f08c379a0000000000000000000000000000000000000000000000000000000008152600401620008fd9062000cc5565b60405180910390fd5b5050565b606081833b036040519150601f19601f602083010116820160405280825280600060208401863c5092915050565b6000813b9050919050565b600081519050620009548162000e30565b92915050565b6000815190506200096b8162000e4a565b92915050565b600081519050620009828162000e64565b92915050565b600081519050620009998162000e7e565b92915050565b600081519050620009b08162000e98565b92915050565b600081519050620009c78162000eb2565b92915050565b600060208284031215620009e057600080fd5b6000620009f08482850162000943565b91505092915050565b600080600080600060a0868803121562000a1257600080fd5b600062000a228882890162000943565b955050602062000a358882890162000971565b945050604062000a48888289016200099f565b935050606062000a5b888289016200095a565b925050608062000a6e8882890162000988565b9150509295509295909350565b60006020828403121562000a8e57600080fd5b600062000a9e84828501620009b6565b91505092915050565b62000ab28162000da2565b82525050565b600062000ac760078362000d91565b91507f6d696e696d756d000000000000000000000000000000000000000000000000006000830152602082019050919050565b600062000b0960128362000d91565b91507f616c72656164792d7265676973746572656400000000000000000000000000006000830152602082019050919050565b600062000b4b600b8362000d91565b91507f6f776e65722d636865636b0000000000000000000000000000000000000000006000830152602082019050919050565b600062000b8d60058362000d91565b91507f656d7074790000000000000000000000000000000000000000000000000000006000830152602082019050919050565b600062000bcf600b8362000d91565b91507f636f64652d6c656e6774680000000000000000000000000000000000000000006000830152602082019050919050565b600062000c11600d8362000d91565b91507f69642d72656769737465726564000000000000000000000000000000000000006000830152602082019050919050565b600062000c53600d8362000d91565b91507f62797465636f64652d68617368000000000000000000000000000000000000006000830152602082019050919050565b600060208201905062000c9d600083018462000aa7565b92915050565b6000602082019050818103600083015262000cbe8162000ab8565b9050919050565b6000602082019050818103600083015262000ce08162000afa565b9050919050565b6000602082019050818103600083015262000d028162000b3c565b9050919050565b6000602082019050818103600083015262000d248162000b7e565b9050919050565b6000602082019050818103600083015262000d468162000bc0565b9050919050565b6000602082019050818103600083015262000d688162000c02565b9050919050565b6000602082019050818103600083015262000d8a8162000c44565b9050919050565b600082825260208201905092915050565b600062000daf8262000e06565b9050919050565b600062000dc38262000da2565b9050919050565b600062000dd78262000da2565b9050919050565b600062000deb8262000da2565b9050919050565b600062000dff8262000da2565b9050919050565b600073ffffffffffffffffffffffffffffffffffffffff82169050919050565b6000819050919050565b62000e3b8162000da2565b811462000e4757600080fd5b50565b62000e558162000db6565b811462000e6157600080fd5b50565b62000e6f8162000dca565b811462000e7b57600080fd5b50565b62000e898162000dde565b811462000e9557600080fd5b50565b62000ea38162000df2565b811462000eaf57600080fd5b50565b62000ebd8162000e26565b811462000ec957600080fd5b50565b60805160601c60a05160601c60c05160601c612abc62000f3960003980610af05280610efb5280610fe35280611233528061126d528061132a5280611465528061150452508061055452806114295250806105785280610b355280610f3952806112ab5250612abc6000f3fe6080604052600436106101405760003560e01c80637241ad28116100b6578063cc4c0b4b1161006f578063cc4c0b4b14610431578063d2d5862c1461045a578063d7164e5114610485578063dfefa73e146104b0578063ec556889146104d9578063fc0c546a1461050457610140565b80637241ad281461035257806380b39a1f1461037d57806381ee933c146103995780638b4b1d2a146103c457806393c08710146103ef578063a98f35951461040657610140565b80634056f8a8116101085780634056f8a81461022e5780634420e486146102595780634783c35b1461028257806356e0a94b146102ad578063662b7c00146102d85780636a3363aa1461031557610140565b80631847c06b14610145578063270cb8ae14610182578063279bad16146101ad5780633150c0a2146101d8578063377cc26e14610203575b600080fd5b34801561015157600080fd5b5061016c60048036038101906101679190611eaa565b61052f565b60405161017991906127b2565b60405180910390f35b34801561018e57600080fd5b50610197610552565b6040516101a491906125fc565b60405180910390f35b3480156101b957600080fd5b506101c2610576565b6040516101cf91906125e1565b60405180910390f35b3480156101e457600080fd5b506101ed61059a565b6040516101fa9190612797565b60405180910390f35b34801561020f57600080fd5b506102186105a0565b60405161022591906127b2565b60405180910390f35b34801561023a57600080fd5b506102436105b6565b6040516102509190612797565b60405180910390f35b34801561026557600080fd5b50610280600480360381019061027b9190611fb5565b6105c4565b005b34801561028e57600080fd5b50610297610753565b6040516102a491906124d7565b60405180910390f35b3480156102b957600080fd5b506102c2610777565b6040516102cf91906127b2565b60405180910390f35b3480156102e457600080fd5b506102ff60048036038101906102fa9190611efc565b61078d565b60405161030c919061256e565b60405180910390f35b34801561032157600080fd5b5061033c60048036038101906103379190612007565b6107c9565b60405161034991906124d7565b60405180910390f35b34801561035e57600080fd5b506103676107fc565b6040516103749190612797565b60405180910390f35b61039760048036038101906103929190612030565b610801565b005b3480156103a557600080fd5b506103ae610c38565b6040516103bb9190612589565b60405180910390f35b3480156103d057600080fd5b506103d9610c5f565b6040516103e69190612797565b60405180910390f35b3480156103fb57600080fd5b50610404610c65565b005b34801561041257600080fd5b5061041b610d36565b6040516104289190612797565b60405180910390f35b34801561043d57600080fd5b5061045860048036038101906104539190611f4b565b610d3c565b005b34801561046657600080fd5b5061046f610fb0565b60405161047c9190612797565b60405180910390f35b34801561049157600080fd5b5061049a610fbc565b6040516104a791906127b2565b60405180910390f35b3480156104bc57600080fd5b506104d760048036038101906104d29190611f74565b610fd2565b005b3480156104e557600080fd5b506104ee611502565b6040516104fb91906124d7565b60405180910390f35b34801561051057600080fd5b50610519611526565b60405161052691906125c6565b60405180910390f35b60056020528060005260406000206000915054906101000a900463ffffffff1681565b7f000000000000000000000000000000000000000000000000000000000000000081565b7f000000000000000000000000000000000000000000000000000000000000000081565b61546081565b600160189054906101000a900463ffffffff1681565b6906c6b935b8bbd400000081565b6105cd81611585565b600160189054906101000a900463ffffffff16600560008373ffffffffffffffffffffffffffffffffffffffff1673ffffffffffffffffffffffffffffffffffffffff16815260200190815260200160002060006101000a81548163ffffffff021916908363ffffffff1602179055508060046000600160189054906101000a900463ffffffff1663ffffffff1663ffffffff16815260200190815260200160002060006101000a81548173ffffffffffffffffffffffffffffffffffffffff021916908373ffffffffffffffffffffffffffffffffffffffff160217905550600360009054906101000a900463ffffffff1663ffffffff16600160189054906101000a900463ffffffff1663ffffffff16141561071d576001600360008282829054906101000a900463ffffffff160192506101000a81548163ffffffff021916908363ffffffff1602179055505b600360009054906101000a900463ffffffff16600160186101000a81548163ffffffff021916908363ffffffff16021790555050565b60008054906101000a900473ffffffffffffffffffffffffffffffffffffffff1681565b600360009054906101000a900463ffffffff1681565b6006602052826000526040600020602052816000526040600020602052806000526040600020600092509250509054906101000a900460ff1681565b60046020528060005260406000206000915054906101000a900473ffffffffffffffffffffffffffffffffffffffff1681565b60a081565b6154606002544203111561081857610817611abd565b5b600060046000600160149054906101000a900463ffffffff1663ffffffff1663ffffffff16815260200190815260200160002060009054906101000a900473ffffffffffffffffffffffffffffffffffffffff1690508073ffffffffffffffffffffffffffffffffffffffff166313d033c06040518163ffffffff1660e01b8152600401602060405180830381600087803b1580156108b657600080fd5b505af11580156108ca573d6000803e3d6000fd5b505050506040513d601f19601f820116820180604052508101906108ee9190611fde565b421061093557600160149054906101000a900463ffffffff16600160186101000a81548163ffffffff021916908363ffffffff16021790555061092f611abd565b50610c31565b8073ffffffffffffffffffffffffffffffffffffffff166338af3eed6040518163ffffffff1660e01b8152600401602060405180830381600087803b15801561097d57600080fd5b505af1158015610991573d6000803e3d6000fd5b505050506040513d601f19601f820116820180604052508101906109b59190611ed3565b73ffffffffffffffffffffffffffffffffffffffff163373ffffffffffffffffffffffffffffffffffffffff1614610a22576040517f08c379a0000000000000000000000000000000000000000000000000000000008152600401610a1990612757565b60405180910390fd5b6706f05b59d3b200003414610a6c576040517f08c379a0000000000000000000000000000000000000000000000000000000008152600401610a6390612777565b60405180910390fd5b60606380b39a1f60e01b8787878787604051602401610a8f9594939291906127cd565b604051602081830303815290604052907bffffffffffffffffffffffffffffffffffffffffffffffffffffffff19166020820180517bffffffffffffffffffffffffffffffffffffffffffffffffffffffff838183161783525050505090507f000000000000000000000000000000000000000000000000000000000000000073ffffffffffffffffffffffffffffffffffffffff1663c4627c5d6706f05b59d3b200007f00000000000000000000000000000000000000000000000000000000000000006706f05b59d3b20000856040518563ffffffff1660e01b8152600401610b7c93929190612530565b6000604051808303818588803b158015610b9557600080fd5b505af1158015610ba9573d6000803e3d6000fd5b50505050506001600660003373ffffffffffffffffffffffffffffffffffffffff1673ffffffffffffffffffffffffffffffffffffffff16815260200190815260200160002060008763ffffffff168152602001908152602001600020600043815260200190815260200160002060006101000a81548160ff02191690831515021790555050505b5050505050565b7f2a7cfb605ecbaaebee7c515143b57775b198b4b26f09976132e4bed2fc6b195760001b81565b60025481565b60008054906101000a900473ffffffffffffffffffffffffffffffffffffffff1673ffffffffffffffffffffffffffffffffffffffff163373ffffffffffffffffffffffffffffffffffffffff1614610cf3576040517f08c379a0000000000000000000000000000000000000000000000000000000008152600401610cea90612657565b60405180910390fd5b60008060006101000a81548173ffffffffffffffffffffffffffffffffffffffff021916908373ffffffffffffffffffffffffffffffffffffffff160217905550565b6116a281565b600060046000600160149054906101000a900463ffffffff1663ffffffff1663ffffffff16815260200190815260200160002060009054906101000a900473ffffffffffffffffffffffffffffffffffffffff1690508073ffffffffffffffffffffffffffffffffffffffff166338af3eed6040518163ffffffff1660e01b8152600401602060405180830381600087803b158015610dda57600080fd5b505af1158015610dee573d6000803e3d6000fd5b505050506040513d601f19601f82011682018060405250810190610e129190611ed3565b73ffffffffffffffffffffffffffffffffffffffff163373ffffffffffffffffffffffffffffffffffffffff1614610e7f576040517f08c379a0000000000000000000000000000000000000000000000000000000008152600401610e7690612757565b60405180910390fd5b606063cc4c0b4b60e01b83604051602401610e9a9190612589565b604051602081830303815290604052907bffffffffffffffffffffffffffffffffffffffffffffffffffffffff19166020820180517bffffffffffffffffffffffffffffffffffffffffffffffffffffffff838183161783525050505090507f000000000000000000000000000000000000000000000000000000000000000073ffffffffffffffffffffffffffffffffffffffff1663c4627c5d60007f00000000000000000000000000000000000000000000000000000000000000006000856040518563ffffffff1660e01b8152600401610f79939291906124f2565b6000604051808303818588803b158015610f9257600080fd5b505af1158015610fa6573d6000803e3d6000fd5b5050505050505050565b6706f05b59d3b2000081565b600160149054906101000a900463ffffffff1681565b6000610fdf826000611b56565b90507f000000000000000000000000000000000000000000000000000000000000000073ffffffffffffffffffffffffffffffffffffffff168173ffffffffffffffffffffffffffffffffffffffff161461106f576040517f08c379a0000000000000000000000000000000000000000000000000000000008152600401611066906126f7565b60405180910390fd5b600061107c836034611c6f565b9050600061108b846054611c6f565b9050600660003373ffffffffffffffffffffffffffffffffffffffff1673ffffffffffffffffffffffffffffffffffffffff1681526020019081526020016000206000838152602001908152602001600020600082815260200190815260200160002060009054906101000a900460ff1661113b576040517f08c379a000000000000000000000000000000000000000000000000000000000815260040161113290612637565b60405180910390fd5b6000600660003373ffffffffffffffffffffffffffffffffffffffff1673ffffffffffffffffffffffffffffffffffffffff1681526020019081526020016000206000848152602001908152602001600020600083815260200190815260200160002060006101000a81548160ff021916908315150217905550606063dfefa73e60e01b856040516024016111d091906125a4565b604051602081830303815290604052907bffffffffffffffffffffffffffffffffffffffffffffffffffffffff19166020820180517bffffffffffffffffffffffffffffffffffffffffffffffffffffffff8381831617835250505050905060007f000000000000000000000000000000000000000000000000000000000000000073ffffffffffffffffffffffffffffffffffffffff163190507f000000000000000000000000000000000000000000000000000000000000000073ffffffffffffffffffffffffffffffffffffffff1663c4627c5d60007f00000000000000000000000000000000000000000000000000000000000000006000866040518563ffffffff1660e01b81526004016112eb939291906124f2565b6000604051808303818588803b15801561130457600080fd5b505af1158015611318573d6000803e3d6000fd5b50505050506706f05b59d3b2000081017f000000000000000000000000000000000000000000000000000000000000000073ffffffffffffffffffffffffffffffffffffffff1631146113a0576040517f08c379a000000000000000000000000000000000000000000000000000000000815260040161139790612777565b60405180910390fd5b60608063c4627c5d60e01b336706f05b59d3b20000846040516024016113c893929190612530565b604051602081830303815290604052907bffffffffffffffffffffffffffffffffffffffffffffffffffffffff19166020820180517bffffffffffffffffffffffffffffffffffffffffffffffffffffffff838183161783525050505090507f000000000000000000000000000000000000000000000000000000000000000073ffffffffffffffffffffffffffffffffffffffff1663c64274747f00000000000000000000000000000000000000000000000000000000000000006000846040518463ffffffff1660e01b81526004016114a5939291906124f2565b602060405180830381600087803b1580156114bf57600080fd5b505af11580156114d3573d6000803e3d6000fd5b505050506040513d601f19601f820116820180604052508101906114f79190611fde565b505050505050505050565b7f000000000000000000000000000000000000000000000000000000000000000081565b600160009054906101000a900473ffffffffffffffffffffffffffffffffffffffff1681565b606081833b036040519150601f19601f602083010116820160405280825280600060208401863c5092915050565b6000813b9050919050565b600073ffffffffffffffffffffffffffffffffffffffff168173ffffffffffffffffffffffffffffffffffffffff1614156115f5576040517f08c379a00000000000000000000000000000000000000000000000000000000081526004016115ec906126b7565b60405180910390fd5b60606116028260a061154c565b90507f2a7cfb605ecbaaebee7c515143b57775b198b4b26f09976132e4bed2fc6b195760001b818051906020012014611670576040517f08c379a000000000000000000000000000000000000000000000000000000000815260040161166790612737565b60405180910390fd5b60a06116a20161167f8361157a565b146116bf576040517f08c379a00000000000000000000000000000000000000000000000000000000081526004016116b6906126d7565b60405180910390fd5b600073ffffffffffffffffffffffffffffffffffffffff168273ffffffffffffffffffffffffffffffffffffffff16638da5cb5b6040518163ffffffff1660e01b8152600401602060405180830381600087803b15801561171f57600080fd5b505af1158015611733573d6000803e3d6000fd5b505050506040513d601f19601f820116820180604052508101906117579190611ed3565b73ffffffffffffffffffffffffffffffffffffffff161480611843575060008054906101000a900473ffffffffffffffffffffffffffffffffffffffff1673ffffffffffffffffffffffffffffffffffffffff168273ffffffffffffffffffffffffffffffffffffffff16638da5cb5b6040518163ffffffff1660e01b8152600401602060405180830381600087803b1580156117f357600080fd5b505af1158015611807573d6000803e3d6000fd5b505050506040513d601f19601f8201168201806040525081019061182b9190611ed3565b73ffffffffffffffffffffffffffffffffffffffff16145b611882576040517f08c379a000000000000000000000000000000000000000000000000000000000815260040161187990612697565b60405180910390fd5b6906c6b935b8bbd4000000600160009054906101000a900473ffffffffffffffffffffffffffffffffffffffff1673ffffffffffffffffffffffffffffffffffffffff166370a08231846040518263ffffffff1660e01b81526004016118e891906124d7565b60206040518083038186803b15801561190057600080fd5b505afa158015611914573d6000803e3d6000fd5b505050506040513d601f19601f820116820180604052508101906119389190611fde565b1015611979576040517f08c379a000000000000000000000000000000000000000000000000000000000815260040161197090612617565b60405180910390fd5b6000600560008473ffffffffffffffffffffffffffffffffffffffff1673ffffffffffffffffffffffffffffffffffffffff16815260200190815260200160002060009054906101000a900463ffffffff1663ffffffff1614611a11576040517f08c379a0000000000000000000000000000000000000000000000000000000008152600401611a0890612717565b60405180910390fd5b8173ffffffffffffffffffffffffffffffffffffffff16600460008063ffffffff16815260200190815260200160002060009054906101000a900473ffffffffffffffffffffffffffffffffffffffff1673ffffffffffffffffffffffffffffffffffffffff161415611ab9576040517f08c379a0000000000000000000000000000000000000000000000000000000008152600401611ab090612677565b60405180910390fd5b5050565b60018060148282829054906101000a900463ffffffff160192506101000a81548163ffffffff021916908363ffffffff16021790555042600281905550600360009054906101000a900463ffffffff1663ffffffff16600160149054906101000a900463ffffffff1663ffffffff1610611b54576000600160146101000a81548163ffffffff021916908363ffffffff1602179055505b565b600081601483011015611bd1576040517f08c379a00000000000000000000000000000000000000000000000000000000081526004018080602001828103825260128152602001807f746f416464726573735f6f766572666c6f77000000000000000000000000000081525060200191505060405180910390fd5b6014820183511015611c4b576040517f08c379a00000000000000000000000000000000000000000000000000000000081526004018080602001828103825260158152602001807f746f416464726573735f6f75744f66426f756e6473000000000000000000000081525060200191505060405180910390fd5b60006c01000000000000000000000000836020860101510490508091505092915050565b600081602083011015611cea576040517f08c379a00000000000000000000000000000000000000000000000000000000081526004018080602001828103825260128152602001807f746f55696e743235365f6f766572666c6f77000000000000000000000000000081525060200191505060405180910390fd5b6020820183511015611d64576040517f08c379a00000000000000000000000000000000000000000000000000000000081526004018080602001828103825260158152602001807f746f55696e743235365f6f75744f66426f756e6473000000000000000000000081525060200191505060405180910390fd5b60008260208501015190508091505092915050565b600081359050611d8881612a13565b92915050565b600081519050611d9d81612a13565b92915050565b60008083601f840112611db557600080fd5b8235905067ffffffffffffffff811115611dce57600080fd5b602083019150836020820283011115611de657600080fd5b9250929050565b600081359050611dfc81612a2a565b92915050565b600082601f830112611e1357600080fd5b8135611e26611e218261284c565b61281b565b91508082526020830160208301858383011115611e4257600080fd5b611e4d8382846129be565b50505092915050565b600081359050611e6581612a41565b92915050565b600081359050611e7a81612a58565b92915050565b600081519050611e8f81612a58565b92915050565b600081359050611ea481612a6f565b92915050565b600060208284031215611ebc57600080fd5b6000611eca84828501611d79565b91505092915050565b600060208284031215611ee557600080fd5b6000611ef384828501611d8e565b91505092915050565b600080600060608486031215611f1157600080fd5b6000611f1f86828701611d79565b9350506020611f3086828701611e6b565b9250506040611f4186828701611e6b565b9150509250925092565b600060208284031215611f5d57600080fd5b6000611f6b84828501611ded565b91505092915050565b600060208284031215611f8657600080fd5b600082013567ffffffffffffffff811115611fa057600080fd5b611fac84828501611e02565b91505092915050565b600060208284031215611fc757600080fd5b6000611fd584828501611e56565b91505092915050565b600060208284031215611ff057600080fd5b6000611ffe84828501611e80565b91505092915050565b60006020828403121561201957600080fd5b600061202784828501611e95565b91505092915050565b60008060008060006080868803121561204857600080fd5b600061205688828901611e95565b955050602061206788828901611ded565b945050604061207888828901611e95565b935050606086013567ffffffffffffffff81111561209557600080fd5b6120a188828901611da3565b92509250509295509295909350565b6120b9816128cc565b82525050565b6120c8816128ba565b82525050565b60006120da8385612887565b93507f07ffffffffffffffffffffffffffffffffffffffffffffffffffffffffffffff83111561210957600080fd5b60208302925061211a8385846129be565b82840190509392505050565b61212f816128de565b82525050565b61213e816128ea565b82525050565b600061214f8261287c565b6121598185612898565b93506121698185602086016129cd565b61217281612a02565b840191505092915050565b61218681612940565b82525050565b61219581612964565b82525050565b6121a481612988565b82525050565b6121b3816129ac565b82525050565b60006121c66007836128a9565b91507f6d696e696d756d000000000000000000000000000000000000000000000000006000830152602082019050919050565b60006122066010836128a9565b91507f626c6f636b2d636f6d6d69746d656e74000000000000000000000000000000006000830152602082019050919050565b60006122466008836128a9565b91507f6d756c74697369670000000000000000000000000000000000000000000000006000830152602082019050919050565b60006122866012836128a9565b91507f616c72656164792d7265676973746572656400000000000000000000000000006000830152602082019050919050565b60006122c6600b836128a9565b91507f6f776e65722d636865636b0000000000000000000000000000000000000000006000830152602082019050919050565b60006123066005836128a9565b91507f656d7074790000000000000000000000000000000000000000000000000000006000830152602082019050919050565b6000612346600b836128a9565b91507f636f64652d6c656e6774680000000000000000000000000000000000000000006000830152602082019050919050565b6000612386600e836128a9565b91507f70726f64756365722d70726f78790000000000000000000000000000000000006000830152602082019050919050565b60006123c6600d836128a9565b91507f69642d72656769737465726564000000000000000000000000000000000000006000830152602082019050919050565b6000612406600d836128a9565b91507f62797465636f64652d68617368000000000000000000000000000000000000006000830152602082019050919050565b6000612446600b836128a9565b91507f62656e65666963696172790000000000000000000000000000000000000000006000830152602082019050919050565b6000612486600a836128a9565b91507f626f6e642d76616c7565000000000000000000000000000000000000000000006000830152602082019050919050565b6124c281612926565b82525050565b6124d181612930565b82525050565b60006020820190506124ec60008301846120bf565b92915050565b600060608201905061250760008301866120b0565b61251460208301856121aa565b81810360408301526125268184612144565b9050949350505050565b600060608201905061254560008301866120b0565b61255260208301856124b9565b81810360408301526125648184612144565b9050949350505050565b60006020820190506125836000830184612126565b92915050565b600060208201905061259e6000830184612135565b92915050565b600060208201905081810360008301526125be8184612144565b905092915050565b60006020820190506125db600083018461217d565b92915050565b60006020820190506125f6600083018461218c565b92915050565b6000602082019050612611600083018461219b565b92915050565b60006020820190508181036000830152612630816121b9565b9050919050565b60006020820190508181036000830152612650816121f9565b9050919050565b6000602082019050818103600083015261267081612239565b9050919050565b6000602082019050818103600083015261269081612279565b9050919050565b600060208201905081810360008301526126b0816122b9565b9050919050565b600060208201905081810360008301526126d0816122f9565b9050919050565b600060208201905081810360008301526126f081612339565b9050919050565b6000602082019050818103600083015261271081612379565b9050919050565b60006020820190508181036000830152612730816123b9565b9050919050565b60006020820190508181036000830152612750816123f9565b9050919050565b6000602082019050818103600083015261277081612439565b9050919050565b6000602082019050818103600083015261279081612479565b9050919050565b60006020820190506127ac60008301846124b9565b92915050565b60006020820190506127c760008301846124c8565b92915050565b60006080820190506127e260008301886124c8565b6127ef6020830187612135565b6127fc60408301866124c8565b818103606083015261280f8184866120ce565b90509695505050505050565b6000604051905081810181811067ffffffffffffffff8211171561284257612841612a00565b5b8060405250919050565b600067ffffffffffffffff82111561286757612866612a00565b5b601f19601f8301169050602081019050919050565b600081519050919050565b600082825260208201905092915050565b600082825260208201905092915050565b600082825260208201905092915050565b60006128c582612906565b9050919050565b60006128d782612906565b9050919050565b60008115159050919050565b6000819050919050565b60006128ff826128ba565b9050919050565b600073ffffffffffffffffffffffffffffffffffffffff82169050919050565b6000819050919050565b600063ffffffff82169050919050565b600061294b82612952565b9050919050565b600061295d82612906565b9050919050565b600061296f82612976565b9050919050565b600061298182612906565b9050919050565b60006129938261299a565b9050919050565b60006129a582612906565b9050919050565b60006129b782612926565b9050919050565b82818337600083830152505050565b60005b838110156129eb5780820151818401526020810190506129d0565b838111156129fa576000848401525b50505050565bfe5b6000601f19601f8301169050919050565b612a1c816128ba565b8114612a2757600080fd5b50565b612a33816128ea565b8114612a3e57600080fd5b50565b612a4a816128f4565b8114612a5557600080fd5b50565b612a6181612926565b8114612a6c57600080fd5b50565b612a7881612930565b8114612a8357600080fd5b5056fea2646970667358221220a7645416917db6260c250de6ce3fbc78855e8ea82142a88c01bc0ce6d47ca68a64736f6c63430007040033",
  "linkReferences": {},
  "deployedLinkReferences": {}
}