{
  "_format": "hh-sol-artifact-1",
  "contractName": "Multisig",
  "sourceName": "contracts/multisig/Multisig.sol",
  "abi": [
    {
      "inputs": [
        {
          "internalType": "address payable",
          "name": "destination",
          "type": "address"
        },
        {
          "internalType": "uint256",
          "name": "value",
          "type": "uint256"
        },
        {
          "internalType": "bytes",
          "name": "data",
          "type": "bytes"
        }
      ],
      "name": "submitTransaction",
      "outputs": [
        {
          "internalType": "uint256",
          "name": "transactionId",
          "type": "uint256"
        }
      ],
      "stateMutability": "nonpayable",
      "type": "function"
    }
  ],
  "bytecode": "0x608060405234801561001057600080fd5b5061043a806100206000396000f3fe608060405234801561001057600080fd5b506004361061002b5760003560e01c8063c642747414610030575b600080fd5b61004a60048036038101906100459190610195565b610060565b60405161005791906102b3565b60405180910390f35b6000808473ffffffffffffffffffffffffffffffffffffffff168484604051610089919061027c565b60006040518083038185875af1925050503d80600081146100c6576040519150601f19603f3d011682016040523d82523d6000602084013e6100cb565b606091505b505090508061010f576040517f08c379a000000000000000000000000000000000000000000000000000000000815260040161010690610293565b60405180910390fd5b509392505050565b600081359050610126816103d6565b92915050565b600082601f83011261013d57600080fd5b813561015061014b826102ff565b6102ce565b9150808252602083016020830185838301111561016c57600080fd5b610177838284610392565b50505092915050565b60008135905061018f816103ed565b92915050565b6000806000606084860312156101aa57600080fd5b60006101b886828701610117565b93505060206101c986828701610180565b925050604084013567ffffffffffffffff8111156101e657600080fd5b6101f28682870161012c565b9150509250925092565b60006102078261032f565b610211818561033a565b93506102218185602086016103a1565b80840191505092915050565b600061023a600d83610345565b91507f7375626d69742d737461747573000000000000000000000000000000000000006000830152602082019050919050565b61027681610388565b82525050565b600061028882846101fc565b915081905092915050565b600060208201905081810360008301526102ac8161022d565b9050919050565b60006020820190506102c8600083018461026d565b92915050565b6000604051905081810181811067ffffffffffffffff821117156102f5576102f46103d4565b5b8060405250919050565b600067ffffffffffffffff82111561031a576103196103d4565b5b601f19601f8301169050602081019050919050565b600081519050919050565b600081905092915050565b600082825260208201905092915050565b600061036182610368565b9050919050565b600073ffffffffffffffffffffffffffffffffffffffff82169050919050565b6000819050919050565b82818337600083830152505050565b60005b838110156103bf5780820151818401526020810190506103a4565b838111156103ce576000848401525b50505050565bfe5b6103df81610356565b81146103ea57600080fd5b50565b6103f681610388565b811461040157600080fd5b5056fea2646970667358221220933b6d360af3b93553b3a036775d9a836bb00dd0c1f2ca0ecccfebf4a66c32bb64736f6c63430007040033",
  "linkReferences": {},
  "deployedLinkReferences": {}
}