{
  "_format": "hh-sol-artifact-1",
  "contractName": "TokenReleaseFactory",
  "sourceName": "contracts/release/TokenRelease.sol",
  "abi": [
    {
      "anonymous": false,
      "inputs": [
        {
          "indexed": true,
          "internalType": "address",
          "name": "_guy",
          "type": "address"
        },
        {
          "indexed": false,
          "internalType": "address",
          "name": "_release",
          "type": "address"
        },
        {
          "indexed": false,
          "internalType": "uint256",
          "name": "_start",
          "type": "uint256"
        },
        {
          "indexed": false,
          "internalType": "uint256",
          "name": "_cliff",
          "type": "uint256"
        },
        {
          "indexed": false,
          "internalType": "uint256",
          "name": "_duration",
          "type": "uint256"
        }
      ],
      "name": "TokenReleaseCreated",
      "type": "event"
    },
    {
      "inputs": [
        {
          "internalType": "address",
          "name": "guy",
          "type": "address"
        }
      ],
      "name": "createRelease",
      "outputs": [],
      "stateMutability": "nonpayable",
      "type": "function"
    }
  ],
  "bytecode": "0x608060405234801561001057600080fd5b50611ed1806100206000396000f3fe608060405234801561001057600080fd5b506004361061002b5760003560e01c806369f0dfc414610030575b600080fd5b6100726004803603602081101561004657600080fd5b81019080803573ffffffffffffffffffffffffffffffffffffffff169060200190929190505050610074565b005b60006228de80905060008160070242019050600082600a0242019050600083601802905060008584848460016040516100ac9061020e565b808673ffffffffffffffffffffffffffffffffffffffff168152602001858152602001848152602001838152602001821515815260200195505050505050604051809103906000f080158015610106573d6000803e3d6000fd5b5090508073ffffffffffffffffffffffffffffffffffffffff1663f2fde38b336040518263ffffffff1660e01b8152600401808273ffffffffffffffffffffffffffffffffffffffff168152602001915050600060405180830381600087803b15801561017257600080fd5b505af1158015610186573d6000803e3d6000fd5b505050508573ffffffffffffffffffffffffffffffffffffffff167fab88b7eeb23425d3c9ed1e5bcdc7f878c01f9612276368eb67a41043f7cbe2de82868686604051808573ffffffffffffffffffffffffffffffffffffffff16815260200184815260200183815260200182815260200194505050505060405180910390a2505050505050565b611c808061021c8339019056fe60806040523480156200001157600080fd5b5060405162001c8038038062001c80833981810160405260a08110156200003757600080fd5b810190808051906020019092919080519060200190929190805190602001909291908051906020019092919080519060200190929190505050600062000082620003dc60201b60201c565b9050806000806101000a81548173ffffffffffffffffffffffffffffffffffffffff021916908373ffffffffffffffffffffffffffffffffffffffff1602179055508073ffffffffffffffffffffffffffffffffffffffff16600073ffffffffffffffffffffffffffffffffffffffff167f8be0079c531659141344cd1fd0a4f28419497f9722a3daafe3b4186f6b6457e060405160405180910390a350600073ffffffffffffffffffffffffffffffffffffffff168573ffffffffffffffffffffffffffffffffffffffff161415620001a8576040517f08c379a000000000000000000000000000000000000000000000000000000000815260040180806020018281038252602d81526020018062001bbf602d913960400191505060405180910390fd5b620001c28285620003e460201b62000fff1790919060201c565b8311156200021c576040517f08c379a000000000000000000000000000000000000000000000000000000000815260040180806020018281038252602b81526020018062001c26602b913960400191505060405180910390fd5b8383101562000277576040517f08c379a000000000000000000000000000000000000000000000000000000000815260040180806020018281038252603a81526020018062001bec603a913960400191505060405180910390fd5b60008211620002ee576040517f08c379a000000000000000000000000000000000000000000000000000000000815260040180806020018281038252601b8152602001807f546f6b656e52656c656173653a206475726174696f6e2069732030000000000081525060200191505060405180910390fd5b42620003098386620003e460201b62000fff1790919060201c565b1162000361576040517f08c379a000000000000000000000000000000000000000000000000000000000815260040180806020018281038252602f81526020018062001c51602f913960400191505060405180910390fd5b84600160006101000a81548173ffffffffffffffffffffffffffffffffffffffff021916908373ffffffffffffffffffffffffffffffffffffffff16021790555080600560006101000a81548160ff02191690831515021790555081600481905550826002819055508360038190555050505050506200046d565b600033905090565b60008082840190508381101562000463576040517f08c379a000000000000000000000000000000000000000000000000000000000815260040180806020018281038252601b8152602001807f536166654d6174683a206164646974696f6e206f766572666c6f77000000000081525060200191505060405180910390fd5b8091505092915050565b611742806200047d6000396000f3fe608060405234801561001057600080fd5b50600436106100ea5760003560e01c8063872a78101161008c578063b2bcf49511610066578063b2bcf495146102f5578063be9a65551461034d578063f2fde38b1461036b578063fa01dc06146103af576100ea565b8063872a7810146102495780638da5cb5b146102695780639852595c1461029d576100ea565b806338af3eed116100c857806338af3eed1461016f57806366c842eb146101a3578063715018a6146101fb57806374a8f10314610205576100ea565b80630fb5a6b4146100ef57806313d033c01461010d578063191655871461012b575b600080fd5b6100f7610409565b6040518082815260200191505060405180910390f35b610115610413565b6040518082815260200191505060405180910390f35b61016d6004803603602081101561014157600080fd5b81019080803573ffffffffffffffffffffffffffffffffffffffff16906020019092919050505061041d565b005b6101776105db565b604051808273ffffffffffffffffffffffffffffffffffffffff16815260200191505060405180910390f35b6101e5600480360360208110156101b957600080fd5b81019080803573ffffffffffffffffffffffffffffffffffffffff169060200190929190505050610605565b6040518082815260200191505060405180910390f35b6102036107d9565b005b6102476004803603602081101561021b57600080fd5b81019080803573ffffffffffffffffffffffffffffffffffffffff169060200190929190505050610946565b005b610251610cc1565b60405180821515815260200191505060405180910390f35b610271610cd8565b604051808273ffffffffffffffffffffffffffffffffffffffff16815260200191505060405180910390f35b6102df600480360360208110156102b357600080fd5b81019080803573ffffffffffffffffffffffffffffffffffffffff169060200190929190505050610d01565b6040518082815260200191505060405180910390f35b6103376004803603602081101561030b57600080fd5b81019080803573ffffffffffffffffffffffffffffffffffffffff169060200190929190505050610d4a565b6040518082815260200191505060405180910390f35b610355610dad565b6040518082815260200191505060405180910390f35b6103ad6004803603602081101561038157600080fd5b81019080803573ffffffffffffffffffffffffffffffffffffffff169060200190929190505050610db7565b005b6103f1600480360360208110156103c557600080fd5b81019080803573ffffffffffffffffffffffffffffffffffffffff169060200190929190505050610fa9565b60405180821515815260200191505060405180910390f35b6000600454905090565b6000600254905090565b600061042882610d4a565b9050600081116104a0576040517f08c379a000000000000000000000000000000000000000000000000000000000815260040180806020018281038252601f8152602001807f546f6b656e52656c656173653a206e6f20746f6b656e7320617265206475650081525060200191505060405180910390fd5b6104f281600660008573ffffffffffffffffffffffffffffffffffffffff1673ffffffffffffffffffffffffffffffffffffffff16815260200190815260200160002054610fff90919063ffffffff16565b600660008473ffffffffffffffffffffffffffffffffffffffff1673ffffffffffffffffffffffffffffffffffffffff16815260200190815260200160002081905550610582600160009054906101000a900473ffffffffffffffffffffffffffffffffffffffff16828473ffffffffffffffffffffffffffffffffffffffff166110879092919063ffffffff16565b7fc7798891864187665ac6dd119286e44ec13f014527aeeb2b8eb3fd413df931798282604051808373ffffffffffffffffffffffffffffffffffffffff1681526020018281526020019250505060405180910390a15050565b6000600160009054906101000a900473ffffffffffffffffffffffffffffffffffffffff16905090565b6000808273ffffffffffffffffffffffffffffffffffffffff166370a08231306040518263ffffffff1660e01b8152600401808273ffffffffffffffffffffffffffffffffffffffff16815260200191505060206040518083038186803b15801561066f57600080fd5b505afa158015610683573d6000803e3d6000fd5b505050506040513d602081101561069957600080fd5b810190808051906020019092919050505090506000610700600660008673ffffffffffffffffffffffffffffffffffffffff1673ffffffffffffffffffffffffffffffffffffffff1681526020019081526020016000205483610fff90919063ffffffff16565b9050600254421015610717576000925050506107d4565b61072e600454600354610fff90919063ffffffff16565b421015806107855750600760008573ffffffffffffffffffffffffffffffffffffffff1673ffffffffffffffffffffffffffffffffffffffff16815260200190815260200160002060009054906101000a900460ff165b156107945780925050506107d4565b6107cf6004546107c16107b26003544261112990919063ffffffff16565b846111ac90919063ffffffff16565b61123290919063ffffffff16565b925050505b919050565b6107e16112bb565b73ffffffffffffffffffffffffffffffffffffffff166107ff610cd8565b73ffffffffffffffffffffffffffffffffffffffff1614610888576040517f08c379a00000000000000000000000000000000000000000000000000000000081526004018080602001828103825260208152602001807f4f776e61626c653a2063616c6c6572206973206e6f7420746865206f776e657281525060200191505060405180910390fd5b600073ffffffffffffffffffffffffffffffffffffffff1660008054906101000a900473ffffffffffffffffffffffffffffffffffffffff1673ffffffffffffffffffffffffffffffffffffffff167f8be0079c531659141344cd1fd0a4f28419497f9722a3daafe3b4186f6b6457e060405160405180910390a360008060006101000a81548173ffffffffffffffffffffffffffffffffffffffff021916908373ffffffffffffffffffffffffffffffffffffffff160217905550565b61094e6112bb565b73ffffffffffffffffffffffffffffffffffffffff1661096c610cd8565b73ffffffffffffffffffffffffffffffffffffffff16146109f5576040517f08c379a00000000000000000000000000000000000000000000000000000000081526004018080602001828103825260208152602001807f4f776e61626c653a2063616c6c6572206973206e6f7420746865206f776e657281525060200191505060405180910390fd5b600560009054906101000a900460ff16610a77576040517f08c379a000000000000000000000000000000000000000000000000000000000815260040180806020018281038252601b8152602001807f546f6b656e52656c656173653a2063616e6e6f74207265766f6b65000000000081525060200191505060405180910390fd5b600760008273ffffffffffffffffffffffffffffffffffffffff1673ffffffffffffffffffffffffffffffffffffffff16815260200190815260200160002060009054906101000a900460ff1615610b1a576040517f08c379a00000000000000000000000000000000000000000000000000000000081526004018080602001828103825260238152602001806116796023913960400191505060405180910390fd5b60008173ffffffffffffffffffffffffffffffffffffffff166370a08231306040518263ffffffff1660e01b8152600401808273ffffffffffffffffffffffffffffffffffffffff16815260200191505060206040518083038186803b158015610b8357600080fd5b505afa158015610b97573d6000803e3d6000fd5b505050506040513d6020811015610bad57600080fd5b810190808051906020019092919050505090506000610bcb83610d4a565b90506000610be2828461112990919063ffffffff16565b90506001600760008673ffffffffffffffffffffffffffffffffffffffff1673ffffffffffffffffffffffffffffffffffffffff16815260200190815260200160002060006101000a81548160ff021916908315150217905550610c6e610c47610cd8565b828673ffffffffffffffffffffffffffffffffffffffff166110879092919063ffffffff16565b7f1093b787a62e380c22cbdd2b926057000169e1531250f957428d1b6ed620e18b84604051808273ffffffffffffffffffffffffffffffffffffffff16815260200191505060405180910390a150505050565b6000600560009054906101000a900460ff16905090565b60008060009054906101000a900473ffffffffffffffffffffffffffffffffffffffff16905090565b6000600660008373ffffffffffffffffffffffffffffffffffffffff1673ffffffffffffffffffffffffffffffffffffffff168152602001908152602001600020549050919050565b6000610da6600660008473ffffffffffffffffffffffffffffffffffffffff1673ffffffffffffffffffffffffffffffffffffffff16815260200190815260200160002054610d9884610605565b61112990919063ffffffff16565b9050919050565b6000600354905090565b610dbf6112bb565b73ffffffffffffffffffffffffffffffffffffffff16610ddd610cd8565b73ffffffffffffffffffffffffffffffffffffffff1614610e66576040517f08c379a00000000000000000000000000000000000000000000000000000000081526004018080602001828103825260208152602001807f4f776e61626c653a2063616c6c6572206973206e6f7420746865206f776e657281525060200191505060405180910390fd5b600073ffffffffffffffffffffffffffffffffffffffff168173ffffffffffffffffffffffffffffffffffffffff161415610eec576040517f08c379a00000000000000000000000000000000000000000000000000000000081526004018080602001828103825260268152602001806116536026913960400191505060405180910390fd5b8073ffffffffffffffffffffffffffffffffffffffff1660008054906101000a900473ffffffffffffffffffffffffffffffffffffffff1673ffffffffffffffffffffffffffffffffffffffff167f8be0079c531659141344cd1fd0a4f28419497f9722a3daafe3b4186f6b6457e060405160405180910390a3806000806101000a81548173ffffffffffffffffffffffffffffffffffffffff021916908373ffffffffffffffffffffffffffffffffffffffff16021790555050565b6000600760008373ffffffffffffffffffffffffffffffffffffffff1673ffffffffffffffffffffffffffffffffffffffff16815260200190815260200160002060009054906101000a900460ff169050919050565b60008082840190508381101561107d576040517f08c379a000000000000000000000000000000000000000000000000000000000815260040180806020018281038252601b8152602001807f536166654d6174683a206164646974696f6e206f766572666c6f77000000000081525060200191505060405180910390fd5b8091505092915050565b6111248363a9059cbb60e01b8484604051602401808373ffffffffffffffffffffffffffffffffffffffff16815260200182815260200192505050604051602081830303815290604052907bffffffffffffffffffffffffffffffffffffffffffffffffffffffff19166020820180517bffffffffffffffffffffffffffffffffffffffffffffffffffffffff83818316178352505050506112c3565b505050565b6000828211156111a1576040517f08c379a000000000000000000000000000000000000000000000000000000000815260040180806020018281038252601e8152602001807f536166654d6174683a207375627472616374696f6e206f766572666c6f77000081525060200191505060405180910390fd5b818303905092915050565b6000808314156111bf576000905061122c565b60008284029050828482816111d057fe5b0414611227576040517f08c379a00000000000000000000000000000000000000000000000000000000081526004018080602001828103825260218152602001806116c26021913960400191505060405180910390fd5b809150505b92915050565b60008082116112a9576040517f08c379a000000000000000000000000000000000000000000000000000000000815260040180806020018281038252601a8152602001807f536166654d6174683a206469766973696f6e206279207a65726f00000000000081525060200191505060405180910390fd5b8183816112b257fe5b04905092915050565b600033905090565b6060611325826040518060400160405280602081526020017f5361666545524332303a206c6f772d6c6576656c2063616c6c206661696c65648152508573ffffffffffffffffffffffffffffffffffffffff166113b29092919063ffffffff16565b90506000815111156113ad5780806020019051602081101561134657600080fd5b81019080805190602001909291905050506113ac576040517f08c379a000000000000000000000000000000000000000000000000000000000815260040180806020018281038252602a8152602001806116e3602a913960400191505060405180910390fd5b5b505050565b60606113c184846000856113ca565b90509392505050565b606082471015611425576040517f08c379a000000000000000000000000000000000000000000000000000000000815260040180806020018281038252602681526020018061169c6026913960400191505060405180910390fd5b61142e85611573565b6114a0576040517f08c379a000000000000000000000000000000000000000000000000000000000815260040180806020018281038252601d8152602001807f416464726573733a2063616c6c20746f206e6f6e2d636f6e747261637400000081525060200191505060405180910390fd5b600060608673ffffffffffffffffffffffffffffffffffffffff1685876040518082805190602001908083835b602083106114f057805182526020820191506020810190506020830392506114cd565b6001836020036101000a03801982511681845116808217855250505050505090500191505060006040518083038185875af1925050503d8060008114611552576040519150601f19603f3d011682016040523d82523d6000602084013e611557565b606091505b5091509150611567828286611586565b92505050949350505050565b600080823b905060008111915050919050565b606083156115965782905061164b565b6000835111156115a95782518084602001fd5b816040517f08c379a00000000000000000000000000000000000000000000000000000000081526004018080602001828103825283818151815260200191508051906020019080838360005b838110156116105780820151818401526020810190506115f5565b50505050905090810190601f16801561163d5780820380516001836020036101000a031916815260200191505b509250505060405180910390fd5b939250505056fe4f776e61626c653a206e6577206f776e657220697320746865207a65726f2061646472657373546f6b656e52656c656173653a20746f6b656e20616c7265616479207265766f6b6564416464726573733a20696e73756666696369656e742062616c616e636520666f722063616c6c536166654d6174683a206d756c7469706c69636174696f6e206f766572666c6f775361666545524332303a204552433230206f7065726174696f6e20646964206e6f742073756363656564a26469706673582212209bd2d117664471ab5b1eaeeee10c375beb91aff2659388ab82ad4e0d3122c3ce64736f6c63430007040033546f6b656e52656c656173653a2062656e656669636961727920697320746865207a65726f2061646472657373546f6b656e52656c656173653a20636c696666206d7573742062652067726561746572207468616e206f7220657175616c20746f207374617274546f6b656e52656c656173653a20636c696666206973206c6f6e676572207468616e206475726174696f6e546f6b656e52656c656173653a2066696e616c2074696d65206973206265666f72652063757272656e742074696d65a2646970667358221220d10be20fe4de7a145d4f70202036af8a54a377566009f420dfce0977559948e864736f6c63430007040033",
  "linkReferences": {},
  "deployedLinkReferences": {}
}